{
  "contractName": "Wallet",
  "abi": [
    {
      "inputs": [
        {
          "internalType": "address[]",
          "name": "_owners",
          "type": "address[]"
        },
        {
          "internalType": "uint256",
          "name": "_limit",
          "type": "uint256"
        }
      ],
      "stateMutability": "nonpayable",
      "type": "constructor"
    },
    {
      "anonymous": false,
      "inputs": [
        {
          "indexed": false,
          "internalType": "uint256",
          "name": "_id",
          "type": "uint256"
        },
        {
          "indexed": false,
          "internalType": "uint256",
          "name": "_approvals",
          "type": "uint256"
        },
        {
          "indexed": false,
          "internalType": "address",
          "name": "_approver",
          "type": "address"
        }
      ],
      "name": "ApprovalReceived",
      "type": "event"
    },
    {
      "anonymous": false,
      "inputs": [
        {
          "indexed": false,
          "internalType": "uint256",
          "name": "_id",
          "type": "uint256"
        }
      ],
      "name": "TransferApproved",
      "type": "event"
    },
    {
      "anonymous": false,
      "inputs": [
        {
          "indexed": false,
          "internalType": "uint256",
          "name": "_id",
          "type": "uint256"
        },
        {
          "indexed": false,
          "internalType": "uint256",
          "name": "_amount",
          "type": "uint256"
        },
        {
          "indexed": false,
          "internalType": "address",
          "name": "_intiator",
          "type": "address"
        },
        {
          "indexed": false,
          "internalType": "address",
          "name": "_receiver",
          "type": "address"
        }
      ],
      "name": "TransferRequestCreated",
      "type": "event"
    },
    {
      "inputs": [
        {
          "internalType": "uint256",
          "name": "",
          "type": "uint256"
        }
      ],
      "name": "owners",
      "outputs": [
        {
          "internalType": "address",
          "name": "",
          "type": "address"
        }
      ],
      "stateMutability": "view",
      "type": "function",
      "constant": true
    },
    {
      "inputs": [],
      "name": "deposit",
      "outputs": [],
      "stateMutability": "payable",
      "type": "function",
      "payable": true
    },
    {
      "inputs": [
        {
          "internalType": "uint256",
          "name": "_amount",
          "type": "uint256"
        },
        {
          "internalType": "address payable",
          "name": "_receiver",
          "type": "address"
        }
      ],
      "name": "createTransfer",
      "outputs": [],
      "stateMutability": "nonpayable",
      "type": "function"
    },
    {
      "inputs": [
        {
          "internalType": "uint256",
          "name": "_id",
          "type": "uint256"
        }
      ],
      "name": "approve",
      "outputs": [],
      "stateMutability": "nonpayable",
      "type": "function"
    },
    {
      "inputs": [],
      "name": "getTransferRequests",
      "outputs": [
        {
          "components": [
            {
              "internalType": "uint256",
              "name": "amount",
              "type": "uint256"
            },
            {
              "internalType": "address payable",
              "name": "receiver",
              "type": "address"
            },
            {
              "internalType": "uint256",
              "name": "approvals",
              "type": "uint256"
            },
            {
              "internalType": "bool",
              "name": "hasBeenSent",
              "type": "bool"
            },
            {
              "internalType": "uint256",
              "name": "id",
              "type": "uint256"
            }
          ],
          "internalType": "struct Wallet.Transfer[]",
          "name": "",
          "type": "tuple[]"
        }
      ],
      "stateMutability": "view",
      "type": "function",
      "constant": true
    }
  ],
  "bytecode": "0x60806040523480156200001157600080fd5b50604051620010c2380380620010c28339818101604052810190620000379190620001dd565b81600090805190602001906200004f9291906200005f565b508060018190555050506200033b565b828054828255906000526020600020908101928215620000db579160200282015b82811115620000da5782518260006101000a81548173ffffffffffffffffffffffffffffffffffffffff021916908373ffffffffffffffffffffffffffffffffffffffff1602179055509160200191906001019062000080565b5b509050620000ea9190620000ee565b5090565b5b8082111562000109576000816000905550600101620000ef565b5090565b6000620001246200011e846200026b565b62000237565b905080838252602082019050828560208602820111156200014457600080fd5b60005b858110156200017857816200015d888262000182565b84526020840193506020830192505060018101905062000147565b5050509392505050565b600081519050620001938162000307565b92915050565b600082601f830112620001ab57600080fd5b8151620001bd8482602086016200010d565b91505092915050565b600081519050620001d78162000321565b92915050565b60008060408385031215620001f157600080fd5b600083015167ffffffffffffffff8111156200020c57600080fd5b6200021a8582860162000199565b92505060206200022d85828601620001c6565b9150509250929050565b6000604051905081810181811067ffffffffffffffff82111715620002615762000260620002d8565b5b8060405250919050565b600067ffffffffffffffff821115620002895762000288620002d8565b5b602082029050602081019050919050565b6000620002a782620002ae565b9050919050565b600073ffffffffffffffffffffffffffffffffffffffff82169050919050565b6000819050919050565b7f4e487b7100000000000000000000000000000000000000000000000000000000600052604160045260246000fd5b62000312816200029a565b81146200031e57600080fd5b50565b6200032c81620002ce565b81146200033857600080fd5b50565b610d77806200034b6000396000f3fe60806040526004361061004a5760003560e01c8063025e7c271461004f5780634c12fa471461008c578063a04ef145146100b5578063b759f954146100e0578063d0e30db014610109575b600080fd5b34801561005b57600080fd5b5061007660048036038101906100719190610961565b610113565b6040516100839190610afe565b60405180910390f35b34801561009857600080fd5b506100b360048036038101906100ae919061098a565b610152565b005b3480156100c157600080fd5b506100ca610364565b6040516100d79190610b19565b60405180910390f35b3480156100ec57600080fd5b5061010760048036038101906101029190610961565b610452565b005b610111610935565b005b6000818154811061012357600080fd5b906000526020600020016000915054906101000a900473ffffffffffffffffffffffffffffffffffffffff1681565b6000805b600080549050811015610213573373ffffffffffffffffffffffffffffffffffffffff16600082815481106101b4577f4e487b7100000000000000000000000000000000000000000000000000000000600052603260045260246000fd5b9060005260206000200160009054906101000a900473ffffffffffffffffffffffffffffffffffffffff1673ffffffffffffffffffffffffffffffffffffffff16141561020057600191505b808061020b90610c9b565b915050610156565b50600115158115151461022557600080fd5b7f099c4ec4ecfc26f7c8b27aeee5443f92120fa2c4e91ba6020369ae71a4d4427860028054905084338560405161025f9493929190610b8d565b60405180910390a160026040518060a001604052808581526020018473ffffffffffffffffffffffffffffffffffffffff1681526020016000815260200160001515815260200160028054905081525090806001815401808255809150506001900390600052602060002090600502016000909190919091506000820151816000015560208201518160010160006101000a81548173ffffffffffffffffffffffffffffffffffffffff021916908373ffffffffffffffffffffffffffffffffffffffff1602179055506040820151816002015560608201518160030160006101000a81548160ff021916908315150217905550608082015181600401555050505050565b60606002805480602002602001604051908101604052809291908181526020016000905b8282101561044957838290600052602060002090600502016040518060a0016040529081600082015481526020016001820160009054906101000a900473ffffffffffffffffffffffffffffffffffffffff1673ffffffffffffffffffffffffffffffffffffffff1673ffffffffffffffffffffffffffffffffffffffff168152602001600282015481526020016003820160009054906101000a900460ff1615151515815260200160048201548152505081526020019060010190610388565b50505050905090565b6000805b600080549050811015610513573373ffffffffffffffffffffffffffffffffffffffff16600082815481106104b4577f4e487b7100000000000000000000000000000000000000000000000000000000600052603260045260246000fd5b9060005260206000200160009054906101000a900473ffffffffffffffffffffffffffffffffffffffff1673ffffffffffffffffffffffffffffffffffffffff16141561050057600191505b808061050b90610c9b565b915050610456565b50600115158115151461052557600080fd5b60001515600360003373ffffffffffffffffffffffffffffffffffffffff1673ffffffffffffffffffffffffffffffffffffffff168152602001908152602001600020600084815260200190815260200160002060009054906101000a900460ff1615151461059357600080fd5b60001515600283815481106105d1577f4e487b7100000000000000000000000000000000000000000000000000000000600052603260045260246000fd5b906000526020600020906005020160030160009054906101000a900460ff161515146105fc57600080fd5b60011515600360003373ffffffffffffffffffffffffffffffffffffffff1673ffffffffffffffffffffffffffffffffffffffff168152602001908152602001600020600084815260200190815260200160002060009054906101000a9050505060028281548110610697577f4e487b7100000000000000000000000000000000000000000000000000000000600052603260045260246000fd5b906000526020600020906005020160020160008154809291906106b990610c9b565b91905055507ffec9d12d15ee8c8b836a58347cb0d4980db38411bcd0b83662cee48fb20b6dee826002848154811061071a577f4e487b7100000000000000000000000000000000000000000000000000000000600052603260045260246000fd5b9060005260206000209060050201600201543360405161073c93929190610b56565b60405180910390a160015460028381548110610781577f4e487b7100000000000000000000000000000000000000000000000000000000600052603260045260246000fd5b90600052602060002090600502016002015410610931576001600283815481106107d4577f4e487b7100000000000000000000000000000000000000000000000000000000600052603260045260246000fd5b906000526020600020906005020160030160006101000a81548160ff02191690831515021790555060028281548110610836577f4e487b7100000000000000000000000000000000000000000000000000000000600052603260045260246000fd5b906000526020600020906005020160010160009054906101000a900473ffffffffffffffffffffffffffffffffffffffff1673ffffffffffffffffffffffffffffffffffffffff166108fc600284815481106108bb577f4e487b7100000000000000000000000000000000000000000000000000000000600052603260045260246000fd5b9060005260206000209060050201600001549081150290604051600060405180830381858888f193505050501580156108f8573d6000803e3d6000fd5b507fd9bbf1d8bef570b7e92ef1ba025425fc15915ae01f3d3be144cdc8be05442eb5826040516109289190610b3b565b60405180910390a15b5050565b565b60008135905061094681610d13565b92915050565b60008135905061095b81610d2a565b92915050565b60006020828403121561097357600080fd5b60006109818482850161094c565b91505092915050565b6000806040838503121561099d57600080fd5b60006109ab8582860161094c565b92505060206109bc85828601610937565b9150509250929050565b60006109d28383610a78565b60a08301905092915050565b6109e781610c65565b82525050565b6109f681610c1d565b82525050565b610a0581610c0b565b82525050565b6000610a1682610be2565b610a208185610bfa565b9350610a2b83610bd2565b8060005b83811015610a5c578151610a4388826109c6565b9750610a4e83610bed565b925050600181019050610a2f565b5085935050505092915050565b610a7281610c2f565b82525050565b60a082016000820151610a8e6000850182610ae0565b506020820151610aa160208501826109ed565b506040820151610ab46040850182610ae0565b506060820151610ac76060850182610a69565b506080820151610ada6080850182610ae0565b50505050565b610ae981610c5b565b82525050565b610af881610c5b565b82525050565b6000602082019050610b1360008301846109fc565b92915050565b60006020820190508181036000830152610b338184610a0b565b905092915050565b6000602082019050610b506000830184610aef565b92915050565b6000606082019050610b6b6000830186610aef565b610b786020830185610aef565b610b8560408301846109fc565b949350505050565b6000608082019050610ba26000830187610aef565b610baf6020830186610aef565b610bbc60408301856109fc565b610bc960608301846109de565b95945050505050565b6000819050602082019050919050565b600081519050919050565b6000602082019050919050565b600082825260208201905092915050565b6000610c1682610c3b565b9050919050565b6000610c2882610c3b565b9050919050565b60008115159050919050565b600073ffffffffffffffffffffffffffffffffffffffff82169050919050565b6000819050919050565b6000610c7082610c77565b9050919050565b6000610c8282610c89565b9050919050565b6000610c9482610c3b565b9050919050565b6000610ca682610c5b565b91507fffffffffffffffffffffffffffffffffffffffffffffffffffffffffffffffff821415610cd957610cd8610ce4565b5b600182019050919050565b7f4e487b7100000000000000000000000000000000000000000000000000000000600052601160045260246000fd5b610d1c81610c1d565b8114610d2757600080fd5b50565b610d3381610c5b565b8114610d3e57600080fd5b5056fea2646970667358221220abbb6ab09c57341a90934d8deda0e03ad7fa9977b94f161b0e6d0c4445c175e464736f6c63430008000033",
  "immutableReferences": {},
  "source": "pragma solidity 0.8.0; \r\npragma abicoder v2;\r\n\r\ncontract Wallet {\r\n    address[] public owners;\r\n    uint limit;\r\n\r\n    struct Transfer{\r\n        uint amount;\r\n        address payable receiver;\r\n        uint approvals;\r\n        bool hasBeenSent;\r\n        uint id;\r\n    }\r\n\r\n\r\nevent TransferRequestCreated(uint _id, uint _amount, address _intiator, address _receiver);\r\nevent ApprovalReceived(uint _id, uint _approvals, address _approver);\r\nevent TransferApproved(uint _id);\r\n\r\n\r\nTransfer[] transferRequests;\r\n\r\nmapping(address => mapping(uint => bool)) approvals;\r\n\r\n//Should only allowed people in the owners list to continue the execution.\r\nmodifier onlyOwners(){\r\n    bool owner = false;\r\n    for(uint i=0; i<owners.length;i++){\r\n        if(owners[i] == msg.sender){\r\n            owner = true;\r\n        }\r\n    }\r\n    require(owner == true);\r\n    _;\r\n}\r\n// Should intialize the owners list and the limit.\r\nconstructor(address[] memory _owners, uint _limit) {\r\n    owners = _owners;\r\n    limit = _limit;\r\n}\r\n\r\n//Empty function\r\nfunction deposit() public payable {}\r\n\r\n//Create an instance of the Transfer struct and add it to the transfer requests array\r\nfunction createTransfer(uint _amount, address payable _receiver) public onlyOwners{\r\n    emit TransferRequestCreated(transferRequests.length, _amount, msg.sender, _receiver);\r\n    transferRequests.push(\r\n        Transfer(_amount, _receiver, 0, false, transferRequests.length)\r\n    );\r\n}\r\n\r\n// Set your approval for one of the transfer requests.\r\n//Need to update the Transfer object.\r\n//Need to update the mapping to record the approval for the msg.sender.\r\n//When the amount osf approvals for a transfer has reached the limit, this function should send the transfer to the recipient.\r\n//An owner should not be able to vote twice.\r\n//An owner should not be able to vote on a transfer request that has already been sent.\r\nfunction approve(uint _id) public onlyOwners {\r\n    require(approvals[msg.sender][_id] == false);\r\n    require(transferRequests[_id].hasBeenSent == false);\r\n\r\n    approvals[msg.sender][_id] == true;\r\n    transferRequests[_id].approvals++;\r\n\r\n    emit ApprovalReceived(_id, transferRequests[_id].approvals, msg.sender);\r\n\r\n    if(transferRequests[_id].approvals >= limit){\r\n        transferRequests[_id].hasBeenSent = true;\r\n        transferRequests[_id].receiver.transfer(transferRequests[_id].amount);\r\n        emit TransferApproved(_id);\r\n    }\r\n}\r\n\r\n//Should return all transfer requests.\r\nfunction getTransferRequests() public view returns (Transfer[] memory){\r\n    return transferRequests;\r\n}\r\n\r\n}",
  "sourcePath": "C:/Users/jflor/Documents/ETH201/helloworld/contracts/Wallet.sol",
  "compiler": {
    "name": "solc",
    "version": "0.8.0+commit.c7dfd78e.Emscripten.clang"
  },
  "schemaVersion": "3.3.4",
  "updatedAt": "2021-04-23T18:27:48.934Z",
  "networkType": "ethereum",
  "devdoc": {
    "kind": "dev",
    "methods": {},
    "version": 1
  },
  "userdoc": {
    "kind": "user",
    "methods": {},
    "version": 1
  }
}